{
  "_format": "hh-sol-artifact-1",
  "contractName": "Vote",
  "sourceName": "contracts/Vote.sol",
  "abi": [
    {
      "inputs": [],
      "stateMutability": "nonpayable",
      "type": "constructor"
    },
    {
      "inputs": [],
      "name": "cerealVotes",
      "outputs": [
        {
          "internalType": "uint8",
          "name": "",
          "type": "uint8"
        }
      ],
      "stateMutability": "view",
      "type": "function"
    },
    {
      "inputs": [],
      "name": "getCerealVotes",
      "outputs": [
        {
          "internalType": "uint8",
          "name": "",
          "type": "uint8"
        }
      ],
      "stateMutability": "view",
      "type": "function"
    },
    {
      "inputs": [],
      "name": "getMilkVotes",
      "outputs": [
        {
          "internalType": "uint8",
          "name": "",
          "type": "uint8"
        }
      ],
      "stateMutability": "view",
      "type": "function"
    },
    {
      "inputs": [],
      "name": "milkVotes",
      "outputs": [
        {
          "internalType": "uint8",
          "name": "",
          "type": "uint8"
        }
      ],
      "stateMutability": "view",
      "type": "function"
    },
    {
      "inputs": [],
      "name": "voteCereal",
      "outputs": [],
      "stateMutability": "nonpayable",
      "type": "function"
    },
    {
      "inputs": [],
      "name": "voteMilk",
      "outputs": [],
      "stateMutability": "nonpayable",
      "type": "function"
    }
  ],
  "bytecode": "0x608060405234801561001057600080fd5b5060008060006101000a81548160ff021916908360ff16021790555060008060016101000a81548160ff021916908360ff16021790555061027c806100566000396000f3fe608060405234801561001057600080fd5b50600436106100625760003560e01c8063075c7b6a146100675780637eb7108f14610071578063848eb3191461008f578063b579437614610099578063c76ecf57146100b7578063db9d51aa146100d5575b600080fd5b61006f6100f3565b005b61007961012c565b60405161008691906101c5565b60405180910390f35b61009761013f565b005b6100a1610179565b6040516100ae91906101c5565b60405180910390f35b6100bf61018f565b6040516100cc91906101c5565b60405180910390f35b6100dd6101a5565b6040516100ea91906101c5565b60405180910390f35b60008081819054906101000a900460ff1680929190610111906101ed565b91906101000a81548160ff021916908360ff16021790555050565b600060019054906101000a900460ff1681565b6000600181819054906101000a900460ff168092919061015e906101ed565b91906101000a81548160ff021916908360ff16021790555050565b60008060019054906101000a900460ff16905090565b60008060009054906101000a900460ff16905090565b60008054906101000a900460ff1681565b6101bf816101e0565b82525050565b60006020820190506101da60008301846101b6565b92915050565b600060ff82169050919050565b60006101f8826101e0565b915060ff82141561020c5761020b610217565b5b600182019050919050565b7f4e487b7100000000000000000000000000000000000000000000000000000000600052601160045260246000fdfea2646970667358221220cca22255e8c2455152e44e03f8d46491e714d47b3a73e817be50265298b5dd7364736f6c63430008040033",
  "linkReferences": {},
  "deployedLinkReferences": {}
}